{
  "_format": "hh-sol-artifact-1",
  "contractName": "UBI",
  "sourceName": "contracts/UBI.sol",
  "abi": [
    {
      "inputs": [
        {
          "internalType": "uint256",
          "name": "initialSupply",
          "type": "uint256"
        },
        {
          "internalType": "uint256",
          "name": "_accruedPerSecond",
          "type": "uint256"
        },
        {
          "internalType": "contract IProofOfHumanity",
          "name": "_proofOfHumanity",
          "type": "address"
        }
      ],
      "stateMutability": "nonpayable",
      "type": "constructor"
    },
    {
      "anonymous": false,
      "inputs": [
        {
          "indexed": true,
          "internalType": "address",
          "name": "owner",
          "type": "address"
        },
        {
          "indexed": true,
          "internalType": "address",
          "name": "spender",
          "type": "address"
        },
        {
          "indexed": false,
          "internalType": "uint256",
          "name": "value",
          "type": "uint256"
        }
      ],
      "name": "Approval",
      "type": "event"
    },
    {
      "anonymous": false,
      "inputs": [
        {
          "indexed": true,
          "internalType": "address",
          "name": "from",
          "type": "address"
        },
        {
          "indexed": true,
          "internalType": "address",
          "name": "to",
          "type": "address"
        },
        {
          "indexed": false,
          "internalType": "uint256",
          "name": "value",
          "type": "uint256"
        }
      ],
      "name": "Transfer",
      "type": "event"
    },
    {
      "inputs": [],
      "name": "accruedPerSecond",
      "outputs": [
        {
          "internalType": "uint256",
          "name": "",
          "type": "uint256"
        }
      ],
      "stateMutability": "view",
      "type": "function"
    },
    {
      "inputs": [
        {
          "internalType": "address",
          "name": "owner",
          "type": "address"
        },
        {
          "internalType": "address",
          "name": "spender",
          "type": "address"
        }
      ],
      "name": "allowance",
      "outputs": [
        {
          "internalType": "uint256",
          "name": "",
          "type": "uint256"
        }
      ],
      "stateMutability": "view",
      "type": "function"
    },
    {
      "inputs": [
        {
          "internalType": "address",
          "name": "spender",
          "type": "address"
        },
        {
          "internalType": "uint256",
          "name": "amount",
          "type": "uint256"
        }
      ],
      "name": "approve",
      "outputs": [
        {
          "internalType": "bool",
          "name": "",
          "type": "bool"
        }
      ],
      "stateMutability": "nonpayable",
      "type": "function"
    },
    {
      "inputs": [
        {
          "internalType": "address",
          "name": "account",
          "type": "address"
        }
      ],
      "name": "balanceOf",
      "outputs": [
        {
          "internalType": "uint256",
          "name": "",
          "type": "uint256"
        }
      ],
      "stateMutability": "view",
      "type": "function"
    },
    {
      "inputs": [
        {
          "internalType": "uint256",
          "name": "amount",
          "type": "uint256"
        }
      ],
      "name": "burn",
      "outputs": [],
      "stateMutability": "nonpayable",
      "type": "function"
    },
    {
      "inputs": [
        {
          "internalType": "address",
          "name": "account",
          "type": "address"
        },
        {
          "internalType": "uint256",
          "name": "amount",
          "type": "uint256"
        }
      ],
      "name": "burnFrom",
      "outputs": [],
      "stateMutability": "nonpayable",
      "type": "function"
    },
    {
      "inputs": [
        {
          "internalType": "uint256",
          "name": "_accruedPerSecond",
          "type": "uint256"
        }
      ],
      "name": "changeAccruedPerSecond",
      "outputs": [],
      "stateMutability": "nonpayable",
      "type": "function"
    },
    {
      "inputs": [],
      "name": "decimals",
      "outputs": [
        {
          "internalType": "uint8",
          "name": "",
          "type": "uint8"
        }
      ],
      "stateMutability": "view",
      "type": "function"
    },
    {
      "inputs": [
        {
          "internalType": "address",
          "name": "spender",
          "type": "address"
        },
        {
          "internalType": "uint256",
          "name": "subtractedValue",
          "type": "uint256"
        }
      ],
      "name": "decreaseAllowance",
      "outputs": [
        {
          "internalType": "bool",
          "name": "",
          "type": "bool"
        }
      ],
      "stateMutability": "nonpayable",
      "type": "function"
    },
    {
      "inputs": [
        {
          "internalType": "address",
          "name": "human",
          "type": "address"
        }
      ],
      "name": "getBasicIncome",
      "outputs": [],
      "stateMutability": "nonpayable",
      "type": "function"
    },
    {
      "inputs": [],
      "name": "governor",
      "outputs": [
        {
          "internalType": "address",
          "name": "",
          "type": "address"
        }
      ],
      "stateMutability": "view",
      "type": "function"
    },
    {
      "inputs": [
        {
          "internalType": "address",
          "name": "spender",
          "type": "address"
        },
        {
          "internalType": "uint256",
          "name": "addedValue",
          "type": "uint256"
        }
      ],
      "name": "increaseAllowance",
      "outputs": [
        {
          "internalType": "bool",
          "name": "",
          "type": "bool"
        }
      ],
      "stateMutability": "nonpayable",
      "type": "function"
    },
    {
      "inputs": [
        {
          "internalType": "address",
          "name": "",
          "type": "address"
        }
      ],
      "name": "lastMintedSecond",
      "outputs": [
        {
          "internalType": "uint256",
          "name": "",
          "type": "uint256"
        }
      ],
      "stateMutability": "view",
      "type": "function"
    },
    {
      "inputs": [],
      "name": "name",
      "outputs": [
        {
          "internalType": "string",
          "name": "",
          "type": "string"
        }
      ],
      "stateMutability": "view",
      "type": "function"
    },
    {
      "inputs": [],
      "name": "proofOfHumanity",
      "outputs": [
        {
          "internalType": "contract IProofOfHumanity",
          "name": "",
          "type": "address"
        }
      ],
      "stateMutability": "view",
      "type": "function"
    },
    {
      "inputs": [
        {
          "internalType": "address",
          "name": "human",
          "type": "address"
        }
      ],
      "name": "reportRemoval",
      "outputs": [],
      "stateMutability": "nonpayable",
      "type": "function"
    },
    {
      "inputs": [
        {
          "internalType": "address",
          "name": "human",
          "type": "address"
        }
      ],
      "name": "startAccruing",
      "outputs": [],
      "stateMutability": "nonpayable",
      "type": "function"
    },
    {
      "inputs": [],
      "name": "symbol",
      "outputs": [
        {
          "internalType": "string",
          "name": "",
          "type": "string"
        }
      ],
      "stateMutability": "view",
      "type": "function"
    },
    {
      "inputs": [],
      "name": "totalSupply",
      "outputs": [
        {
          "internalType": "uint256",
          "name": "",
          "type": "uint256"
        }
      ],
      "stateMutability": "view",
      "type": "function"
    },
    {
      "inputs": [
        {
          "internalType": "address",
          "name": "recipient",
          "type": "address"
        },
        {
          "internalType": "uint256",
          "name": "amount",
          "type": "uint256"
        }
      ],
      "name": "transfer",
      "outputs": [
        {
          "internalType": "bool",
          "name": "",
          "type": "bool"
        }
      ],
      "stateMutability": "nonpayable",
      "type": "function"
    },
    {
      "inputs": [
        {
          "internalType": "address",
          "name": "sender",
          "type": "address"
        },
        {
          "internalType": "address",
          "name": "recipient",
          "type": "address"
        },
        {
          "internalType": "uint256",
          "name": "amount",
          "type": "uint256"
        }
      ],
      "name": "transferFrom",
      "outputs": [
        {
          "internalType": "bool",
          "name": "",
          "type": "bool"
        }
      ],
      "stateMutability": "nonpayable",
      "type": "function"
    }
  ],
  "bytecode": "0x60a0604052600780546001600160a01b031916331790553480156200002357600080fd5b5060405162001a2738038062001a27833981810160405260608110156200004957600080fd5b50805160208083015160409384015184518086018652600f81526e088cadadec6e4c2c6f2408ac2e4e8d608b1b818501908152865180880190975260038088526255424960e81b958801959095528151959693959294919392620000af92919062000281565b508051620000c590600490602084019062000281565b50506005805460ff191660121790555060068290556001600160601b0319606082901b166080526200010233670de0b6b3a764000085026200010b565b5050506200031d565b6001600160a01b03821662000167576040805162461bcd60e51b815260206004820152601f60248201527f45524332303a206d696e7420746f20746865207a65726f206164647265737300604482015290519081900360640190fd5b62000175600083836200021a565b62000191816002546200021f60201b62000f531790919060201c565b6002556001600160a01b03821660009081526020818152604090912054620001c491839062000f536200021f821b17901c565b6001600160a01b0383166000818152602081815260408083209490945583518581529351929391927fddf252ad1be2c89b69c2b068fc378daa952ba7f163c4a11628f55a4df523b3ef9281900390910190a35050565b505050565b6000828201838110156200027a576040805162461bcd60e51b815260206004820152601b60248201527f536166654d6174683a206164646974696f6e206f766572666c6f770000000000604482015290519081900360640190fd5b9392505050565b828054600181600116156101000203166002900490600052602060002090601f016020900481019282601f10620002c457805160ff1916838001178555620002f4565b82800160010185558215620002f4579182015b82811115620002f4578251825591602001919060010190620002d7565b506200030292915062000306565b5090565b5b8082111562000302576000815560010162000307565b60805160601c6116dd6200034a600039806105bf52806108865280610bc95280610f0652506116dd6000f3fe608060405234801561001057600080fd5b50600436106101375760003560e01c806339509351116100b85780639c0b40db1161007c5780639c0b40db146103bf578063a457c2d7146103e5578063a9059cbb14610411578063c774a7df1461043d578063d960586714610445578063dd62ed3e1461044d57610137565b8063395093511461031c57806342966c681461034857806370a082311461036557806379cc67901461038b57806395d89b41146103b757610137565b806318160ddd116100ff57806318160ddd14610274578063226fa42d1461027c57806323b872dd146102a257806326b5bdd6146102d8578063313ce567146102fe57610137565b806306baeb971461013c57806306fdde0314610174578063095ea7b3146101f15780630c340a241461023157806315201aa714610255575b600080fd5b6101626004803603602081101561015257600080fd5b50356001600160a01b031661047b565b60408051918252519081900360200190f35b61017c61048d565b6040805160208082528351818301528351919283929083019185019080838360005b838110156101b657818101518382015260200161019e565b50505050905090810190601f1680156101e35780820380516001836020036101000a031916815260200191505b509250505060405180910390f35b61021d6004803603604081101561020757600080fd5b506001600160a01b038135169060200135610523565b604080519115158252519081900360200190f35b610239610540565b604080516001600160a01b039092168252519081900360200190f35b6102726004803603602081101561026b57600080fd5b503561054f565b005b6101626105b3565b6102726004803603602081101561029257600080fd5b50356001600160a01b03166105b9565b61021d600480360360608110156102b857600080fd5b506001600160a01b038135811691602081013590911690604001356107f8565b610272600480360360208110156102ee57600080fd5b50356001600160a01b031661087f565b610306610a81565b6040805160ff9092168252519081900360200190f35b61021d6004803603604081101561033257600080fd5b506001600160a01b038135169060200135610a8a565b6102726004803603602081101561035e57600080fd5b5035610ad8565b6101626004803603602081101561037b57600080fd5b50356001600160a01b0316610aec565b610272600480360360408110156103a157600080fd5b506001600160a01b038135169060200135610b07565b61017c610b61565b610272600480360360208110156103d557600080fd5b50356001600160a01b0316610bc2565b61021d600480360360408110156103fb57600080fd5b506001600160a01b038135169060200135610e82565b61021d6004803603604081101561042757600080fd5b506001600160a01b038135169060200135610eea565b610162610efe565b610239610f04565b6101626004803603604081101561046357600080fd5b506001600160a01b0381358116916020013516610f28565b60086020526000908152604090205481565b60038054604080516020601f60026000196101006001881615020190951694909404938401819004810282018101909252828152606093909290918301828280156105195780601f106104ee57610100808354040283529160200191610519565b820191906000526020600020905b8154815290600101906020018083116104fc57829003601f168201915b5050505050905090565b6000610537610530610fb4565b8484610fb8565b50600192915050565b6007546001600160a01b031681565b6007546001600160a01b031633146105ae576040805162461bcd60e51b815260206004820152601f60248201527f5468652063616c6c6572206973206e6f742074686520676f7665726e6f722e00604482015290519081900360640190fd5b600655565b60025490565b806000807f00000000000000000000000000000000000000000000000000000000000000006001600160a01b03166397973043846040518263ffffffff1660e01b815260040180826001600160a01b0316815260200191505060e06040518083038186803b15801561062a57600080fd5b505afa15801561063e573d6000803e3d6000fd5b505050506040513d60e081101561065457600080fd5b506080015190508015158215151481610685576040518060600160405280603681526020016116296036913961069f565b6040518060600160405280603881526020016114ab603891395b906107285760405162461bcd60e51b81526004018080602001828103825283818151815260200191508051906020019080838360005b838110156106ed5781810151838201526020016106d5565b50505050905090810190601f16801561071a5780820380516001836020036101000a031916815260200191505b509250505060405180910390fd5b506001600160a01b038416600090815260086020526040902054849060019015158082148161076f5760405180606001604052806023815260200161154e60239139610789565b6040518060600160405280602781526020016114e3602791395b906107d55760405162461bcd60e51b81526020600482018181528351602484015283519092839260449091019190850190808383600083156106ed5781810151838201526020016106d5565b5050506001600160a01b0390941660009081526008602052604081205550505050565b60006108058484846110a4565b61087584610811610fb4565b61087085604051806060016040528060288152602001611597602891396001600160a01b038a1660009081526001602052604081209061084f610fb4565b6001600160a01b0316815260208101919091526040016000205491906111ff565b610fb8565b5060019392505050565b80600160007f00000000000000000000000000000000000000000000000000000000000000006001600160a01b03166397973043846040518263ffffffff1660e01b815260040180826001600160a01b0316815260200191505060e06040518083038186803b1580156108f157600080fd5b505afa158015610905573d6000803e3d6000fd5b505050506040513d60e081101561091b57600080fd5b50608001519050801515821515148161094c5760405180606001604052806036815260200161162960369139610966565b6040518060600160405280603881526020016114ab603891395b906109b25760405162461bcd60e51b81526020600482018181528351602484015283519092839260449091019190850190808383600083156106ed5781810151838201526020016106d5565b506001600160a01b03841660009081526008602052604081205485919015801590816109f65760405180606001604052806023815260200161154e60239139610a10565b6040518060600160405280602781526020016114e3602791395b90610a5c5760405162461bcd60e51b81526020600482018181528351602484015283519092839260449091019190850190808383600083156106ed5781810151838201526020016106d5565b5050506001600160a01b03909416600090815260086020526040902042905550505050565b60055460ff1690565b6000610537610a97610fb4565b846108708560016000610aa8610fb4565b6001600160a01b03908116825260208083019390935260409182016000908120918c168152925290205490610f53565b610ae9610ae3610fb4565b82611259565b50565b6001600160a01b031660009081526020819052604090205490565b6000610b3e826040518060600160405280602481526020016115bf60249139610b3786610b32610fb4565b610f28565b91906111ff565b9050610b5283610b4c610fb4565b83610fb8565b610b5c8383611259565b505050565b60048054604080516020601f60026000196101006001881615020190951694909404938401819004810282018101909252828152606093909290918301828280156105195780601f106104ee57610100808354040283529160200191610519565b80600160007f00000000000000000000000000000000000000000000000000000000000000006001600160a01b03166397973043846040518263ffffffff1660e01b815260040180826001600160a01b0316815260200191505060e06040518083038186803b158015610c3457600080fd5b505afa158015610c48573d6000803e3d6000fd5b505050506040513d60e0811015610c5e57600080fd5b506080015190508015158215151481610c8f5760405180606001604052806036815260200161162960369139610ca9565b6040518060600160405280603881526020016114ab603891395b90610cf55760405162461bcd60e51b81526020600482018181528351602484015283519092839260449091019190850190808383600083156106ed5781810151838201526020016106d5565b506001600160a01b0384166000908152600860205260409020548490600190151580821481610d3c5760405180606001604052806023815260200161154e60239139610d56565b6040518060600160405280602781526020016114e3602791395b90610da25760405162461bcd60e51b81526020600482018181528351602484015283519092839260449091019190850190808383600083156106ed5781810151838201526020016106d5565b506001600160a01b038716610df2576040805162461bcd60e51b8152602060048201526011602482015270068756d616e2063616e6e6f74206265203607c1b604482015290519081900360640190fd5b6001600160a01b0387163314610e46576040805162461bcd60e51b8152602060048201526014602482015273343ab6b0b71036bab9ba1031329039b2b73232b960611b604482015290519081900360640190fd5b6001600160a01b0387166000908152600860205260409020805460065442928390559103908102610e778982611355565b505050505050505050565b6000610537610e8f610fb4565b84610870856040518060600160405280602581526020016116836025913960016000610eb9610fb4565b6001600160a01b03908116825260208083019390935260409182016000908120918d168152925290205491906111ff565b6000610537610ef7610fb4565b84846110a4565b60065481565b7f000000000000000000000000000000000000000000000000000000000000000081565b6001600160a01b03918216600090815260016020908152604080832093909416825291909152205490565b600082820183811015610fad576040805162461bcd60e51b815260206004820152601b60248201527f536166654d6174683a206164646974696f6e206f766572666c6f770000000000604482015290519081900360640190fd5b9392505050565b3390565b6001600160a01b038316610ffd5760405162461bcd60e51b815260040180806020018281038252602481526020018061165f6024913960400191505060405180910390fd5b6001600160a01b0382166110425760405162461bcd60e51b815260040180806020018281038252602281526020018061152c6022913960400191505060405180910390fd5b6001600160a01b03808416600081815260016020908152604080832094871680845294825291829020859055815185815291517f8c5be1e5ebec7d5bd14f71427d1e84f3dd0314c0f7b2291e5b200ac8c7c3b9259281900390910190a3505050565b6001600160a01b0383166110e95760405162461bcd60e51b81526004018080602001828103825260258152602001806116046025913960400191505060405180910390fd5b6001600160a01b03821661112e5760405162461bcd60e51b81526004018080602001828103825260238152602001806114886023913960400191505060405180910390fd5b611139838383610b5c565b61117681604051806060016040528060268152602001611571602691396001600160a01b03861660009081526020819052604090205491906111ff565b6001600160a01b0380851660009081526020819052604080822093909355908416815220546111a59082610f53565b6001600160a01b038084166000818152602081815260409182902094909455805185815290519193928716927fddf252ad1be2c89b69c2b068fc378daa952ba7f163c4a11628f55a4df523b3ef92918290030190a3505050565b600081848411156112515760405162461bcd60e51b81526020600482018181528351602484015283519092839260449091019190850190808383600083156106ed5781810151838201526020016106d5565b505050900390565b6001600160a01b03821661129e5760405162461bcd60e51b81526004018080602001828103825260218152602001806115e36021913960400191505060405180910390fd5b6112aa82600083610b5c565b6112e78160405180606001604052806022815260200161150a602291396001600160a01b03851660009081526020819052604090205491906111ff565b6001600160a01b03831660009081526020819052604090205560025461130d9082611445565b6002556040805182815290516000916001600160a01b038516917fddf252ad1be2c89b69c2b068fc378daa952ba7f163c4a11628f55a4df523b3ef9181900360200190a35050565b6001600160a01b0382166113b0576040805162461bcd60e51b815260206004820152601f60248201527f45524332303a206d696e7420746f20746865207a65726f206164647265737300604482015290519081900360640190fd5b6113bc60008383610b5c565b6002546113c99082610f53565b6002556001600160a01b0382166000908152602081905260409020546113ef9082610f53565b6001600160a01b0383166000818152602081815260408083209490945583518581529351929391927fddf252ad1be2c89b69c2b068fc378daa952ba7f163c4a11628f55a4df523b3ef9281900390910190a35050565b6000610fad83836040518060400160405280601e81526020017f536166654d6174683a207375627472616374696f6e206f766572666c6f7700008152506111ff56fe45524332303a207472616e7366657220746f20746865207a65726f2061646472657373546865207375626d697373696f6e206973207374696c6c207265676973746572656420696e2050726f6f66204f662048756d616e6974792e546865207375626d697373696f6e20697320616c7265616479206163637275696e67205542492e45524332303a206275726e20616d6f756e7420657863656564732062616c616e636545524332303a20617070726f766520746f20746865207a65726f2061646472657373546865207375626d697373696f6e206973206e6f74206163637275696e67205542492e45524332303a207472616e7366657220616d6f756e7420657863656564732062616c616e636545524332303a207472616e7366657220616d6f756e74206578636565647320616c6c6f77616e636545524332303a206275726e20616d6f756e74206578636565647320616c6c6f77616e636545524332303a206275726e2066726f6d20746865207a65726f206164647265737345524332303a207472616e736665722066726f6d20746865207a65726f2061646472657373546865207375626d697373696f6e206973206e6f74207265676973746572656420696e2050726f6f66204f662048756d616e6974792e45524332303a20617070726f76652066726f6d20746865207a65726f206164647265737345524332303a2064656372656173656420616c6c6f77616e63652062656c6f77207a65726fa2646970667358221220e1e462dc32afcebdcf69600c01d6a4edd930a875aa6004d55c181cbae7a0525b64736f6c63430007030033",
  "linkReferences": {},
  "deployedLinkReferences": {}
}